:020000040800F2
:10000000180A0020C9000008EF0000087B0700085C
:1000100000000000000000000000000000000000E0
:10002000000000000000000000000000F3000008D5
:100030000000000000000000F5000008750900083D
:10004000F9000008F9000008F9000008F9000008AC
:10005000F9000008F9000008F9000008F90000089C
:1000600000000000F9000008F9000008F90000088D
:10007000F9000008F9000008F9000008F90000087C
:10008000F90000080000000000000000F90000086E
:1000900000000000F9000008F9000008F90000085D
:1000A00000000000F900000800000000F90000084E
:1000B0000448854600F0C6F900F052F800480047B1
:1000C000F12A0008180A00200C4880F308880C4820
:1000D0000168090E0B4A914205D10B480B4901609A
:1000E0000B480C4901600C4880470C480047FEE76C
:1000F000FEE7FEE7FEE7FEE7FEE70000180A002045
:10010000040000001F000000181002400100000061
:10011000000001400000000079090008B10000085B
:1001200030B50B46014600202022012409E00D468F
:10013000D5409D4205D31D469540491B2546954017
:1001400040191546521E002DF1DC30BD0321001D63
:10015000401E037812021A43491EF9D51046704713
:1001600070B5054C054D03E0206800198047241D3B
:10017000AC42F9D170BD00006C3D0008703D000834
:10018000F8B502464A40D40F42004B0052085B08C3
:100190009A4202D20246084611464A0023D0C30DB5
:1001A0004A00DDB2120EAD1A202D35DA49020126C1
:1001B000490AF6058A19002C00D0524220214F1B13
:1001C0001146B9402A411018C20D9A4221D0002C84
:1001D00017D0012D08DCDA05801AD20F8019D2075A
:1001E000DBB200F0F5F8F8BDDA05801A0123400013
:1001F0001B06C01880185A428018CA0F10434900C5
:1002000007E04908C2071143DA05801A801940083F
:10021000801800F0D5F8F8BD61000122511A001BCA
:10022000F7E70122D2075140AAE70122D207504046
:10023000A6E7024670B54A40D30FDB0740002DD039
:100240004A002AD0010E140E000212020919400AB7
:10025000520A8418E50104465443000A120A2E0487
:100260005043A4194219200CC543AA18120C0125A9
:10027000AD03521C521912047F39240400D0521CC1
:10028000104301D44000491EC2B20C06C009201818
:10029000401C4008802A02D003E0002070BD4008C6
:1002A0004000002900DA0020184370BD70B50246F6
:1002B0004A40D50F40004A00ED0740085208002888
:1002C00014D0002A12D0C40DD30D41020120C00564
:1002D0005202490A520AE41A091812187D3491424E
:1002E00001D3641C00E04900002C01DA002070BD3D
:1002F0000023914201D3891A034340084900002892
:10030000F7D100290AD0914202D10121C90705E0A5
:10031000914201D2012101E00121C943E005C01849
:10032000401900F04DF870BD420005D04200120E99
:1003300052428A4201DB00207047C9050818704705
:10034000C217C10F504010B54018CA0796230021AC
:1003500000F03EF810BD10B500229623114600F0C3
:1003600037F810BDC20F410040020123400ADB05EF
:10037000D207090EC0187F2901DA0020704796299C
:1003800003DC9623591AC84001E096398840002AB8
:10039000F4D04042704700000122D207002800DB61
:1003A000101A002900DB511A814270470122D2073E
:1003B000002800DB101A002900DB511A8842704720
:1003C000002904DA401C490001D140084000704770
:1003D00070B40024050C05D11024000402D10029BA
:1003E00021D01124050E01D100020834050F01D1DE
:1003F0000001241D850F01D18000A41C002801DB11
:100400004000641C002908D020252E1B0D46F54015
:10041000A14000D001212943084301061B1B000A0B
:10042000DB1D02D5002070BC7047DB051818801852
:100430000029F8DA401C4900F5D170BC40084000A2
:1004400070470000064C0125064E05E0E36807CC26
:100450002B430C3C98471034B442F7D3FFF72CFEE3
:100460004C3D00086C3D000870B58C180578401CA8
:100470006B075B0F01D10378401C2A1106D102786B
:10048000401C03E006780E70401C491C5B1EF9D12D
:100490002B0705D40023521E0DD40B70491CFAE71C
:1004A0000378401CCB1A921C03E01D780D70491C88
:1004B0005B1C521EF9D5A142D8D3002070BD836ABF
:1004C0000B438362426170470029816801D0012299
:1004D00000E002221143816070470029C16802D008
:1004E0000122114301E049084900C1607047C26818
:1004F00002239A43C260C2680A43C260704782689E
:1005000000210123DB071A4382600F231B0382684B
:10051000491CD20FD207994201D0002AF7D1816835
:10052000002901DB006C70470020704730B5C268BD
:10053000084B8C681A400B680D792343CC686D0317
:100540002C4323430C69496923430B431343C36082
:1005500030BD000003D2FFFF816804221143816097
:1005600070470021016001718160C16001614161DA
:10057000704700000122054992050028886801D0D3
:10058000104300E09043886070470000002701405E
:100590000029016802D00122114301E0014A114003
:1005A00001607047FEFF000030B503680C4A0C6A1A
:1005B00013408A684D6922430C692C4322438C699D
:1005C0002243CC6922434C6A22438C6A22431A4359
:1005D0000260CA6842600A6882604968C16030BDD2
:1005E0000F80FFFFF0B50B2706463F04384600F0AA
:1005F00067F804280FD1084C2069022528432061A0
:1006000066612069402108432061384600F058F8AF
:100610002169A9432161F0BD00200240084904205E
:10062000CA68D20701D001207047CA68D20601D536
:1006300002207047C9684907FBD5032070470000B6
:100640000020024002480169802211430161704785
:1006500000200240F8B5064600200B273F0400901A
:100660000D46384600F02CF8042815D10B4C2069B3
:100670000121084320613580384600F021F8042824
:1006800006D1B61C290C00963180384600F018F8C7
:100690002169490849002161F8BD0000002002409D
:1006A00004480169090603D50349416003494160D3
:1006B000704700000020024023016745AB89EFCD61
:1006C00000B50346FFF7AAFF02E0FFF7A7FF5B1E96
:1006D000012803D0002B00D1052000BD002BF4D150
:1006E000FAE7F0B50022032501230C6893401C4073
:1006F0009C422AD10C79012C01D0022C12D187689E
:1007000054002E46A640B74387604E79A6408468C1
:100710002643866084889C43848084888B799340B8
:100720001C438480066853002C469C40A643066008
:100730000E7907689E403E430660C668A643C660C1
:10074000CC799C40C3681C43C460521C102ACBD394
:10075000F0BD4B07DB0E9A40C90810B58900081898
:10076000016A0F249C40A1430162016A11430162A6
:1007700010BD0185704781617047052001F054FA72
:100780000029016802D00122114301E04908490013
:1007900001607047012292030029416801D0114392
:1007A00000E09143416070470246926900200A428E
:1007B00000D001207047000010B5026852085200B6
:1007C00002600268134B8C681A4024024B68144381
:1007D000234303600F230A681B069A4302610268E1
:1007E00001231A43026000228260C2600B698A6999
:1007F0001A43826082680123DB031A438260CA685D
:100800000368134303604268034B49691A4011436C
:10081000416010BDFFE0CF00FF7FFF07406AC0B21C
:10082000704781627047000070B5049D4468890577
:10083000890D1204034E11431943344029432143C7
:10084000416070BD009800FC70B5FF250021044692
:10085000AD05C943FFF768FD06460F4960100C1A45
:1008600021463046FFF7E5FC2146FFF7E2FC29462A
:10087000FFF7DBFC2146FFF7DCFC0446014630466F
:10088000FFF7D7FC2146FFF7D4FC2946FFF7CDFC44
:100890002146FFF7CEFC70BDDF59375F044A0029BF
:1008A000516901D0014300E081435161704700006C
:1008B00000100240044A0029D16901D0014300E040
:1008C0008143D1617047000000100240044A0029B2
:1008D000916901D0014300E08143916170470000BC
:1008E0000010024004490A6B10239A430A630A6B02
:1008F00002430A637047000000100240044A0029C6
:10090000116801D0014300E081431160704700008D
:10091000000001400CB50020009001901349112007
:1009200008601348416841604168416041687B222A
:10093000D2039143416041680522D20411434160D2
:100940000168012212061143016001688901FCD58A
:100950004168890889004160416802221143416071
:1009600041680907890F0229FAD10CBD0020024015
:10097000001002407047000010B5144801680122C1
:10098000114301604168124A114041600168114AF7
:1009900011400160016801229204914301604168A5
:1009A0003F22120491434160C16A09090901C162F1
:1009B000016BFF22543291430163416B49084900A6
:1009C000416300218160FFF7A5FF10BD00100240C8
:1009D0000CB8FF08FFFFF6FE0029018802D00122B3
:1009E000114301E049084900018070474030002967
:1009F000818803D00122D203114301E04904490C4C
:100A00008180704770B5028C520852000284048CB9
:100A10008288038B7025AB439B080D889B001D4388
:100A200002239C438E894B882643104C3343A042BB
:100A300008D00F4CA04205D00E4CA04202D00E4C64
:100A4000A0420DD10824A343CC891C4304239C431A
:100A50008B882343094C22400C8A14434A8A224340
:100A60008280058389684163038470BD002C014046
:100A7000004001400044014000480140FFFC0000EC
:100A800070B5028C10239A430284048C8288038BF5
:100A90001A4D2B400D782D062D0C1D4320239C4311
:100AA0008B891B051E0C4B8826431B051B0C144C05
:100AB0003343A04202D0134EB04219D1124E3240FD
:100AC0000E8AB604360C3243A04211D18024A343CF
:100AD000CC892405240C1C4340239C438B881B0594
:100AE0001B0C2343094C22404C8AA404240C2243AF
:100AF0008280058389688163038470BDFF8C000058
:100B0000002C014000400140FFFB0000FFF7000007
:100B100030B5028C124B1A400284058C8288838B7C
:100B2000104C23400C782406240C1C430E4B1D4013
:100B30000B7B1B071B0C2B438D782D072D0C1D43A6
:100B40000A4B984205D10A4B13400A8A9205120CAF
:100B50001A438280848389680164058430BD000063
:100B6000FFEF0000FF8C0000FFDF0000002C0140C1
:100B7000FFBF000010B50288144B984206D0012434
:100B8000A407A04202D0124CA04203D17024A24379
:100B90004C8822430F4CA04203D00F4C22400C89BA
:100BA000224302804A68C2620A880285984208D0BD
:100BB0000A4A904205D00A4A904202D0094A90421D
:100BC00001D1897A01860121818210BD002C01406A
:100BD0000004004000100040FFFC00000040014005
:100BE0000044014000480140014603488860034832
:100BF000C8600846704700000AD7A33C249A843D89
:100C00000146034888600348C860084670470000F2
:100C10000AD7A33C249A843D002101607047FFB5A8
:100C200081B01C4617460E0007D0019D02E0284601
:100C3000B047ED192046641EF9D2019805B0F0BD09
:100C400002E008C8121F08C1002AFAD17047704795
:100C5000002001E001C1121F002AFBD170470000F3
:100C600010B5032310220B490B48FFF7D8FF0A48A1
:100C70000323102209493030FFF7D1FF0848002133
:100C8000016005480323082206496030FFF7C7FFCB
:100C900010BD0000E90B0008A0050020010C0008B1
:100CA00050020020190C0008F8B5154E452000062A
:100CB00037460025183FB06002F0BAFD0024A000BE
:100CC000395880190F4A01F052FE641C032CF6DBE0
:100CD00001F0FAFAFF20F5306D1C8542ECDB45216E
:100CE0000906B068FFF79DFA074D0024B060A00028
:100CF0008019294601F028FE641C032CF7DBF8BD9F
:100D0000640500201F856B3F0000FA4370B592B068
:100D1000202503206946069508770024CC77092012
:100D200006A9C006FFF7DDFC01214802FFF7CEFD52
:100D300001210846FFF7B2FD2A4806902A4807908D
:100D40000220099080200B9040000C9008948000B5
:100D50000E950D900A94C000244D0F9006A9109492
:100D60002846FFF721FC1F4E0221403E3046FFF788
:100D7000BEFB01213046FFF7B0FB6846FFF7F1FBF1
:100D8000012069460094087104200590029404949F
:100D90003046FFF7CBFB0121072249043046FFF71D
:100DA0008EFB072220213046FFF789FB0120FFF749
:100DB000E1FB3046FFF7A3FB01213046FFF784FB40
:100DC0003046FFF7C9FB01212846FFF7E1FB084841
:100DD0000088FFF7C0FA0749FFF72BFA024948607D
:100DE00012B070BD40240140EC0100200800024018
:100DF000BAF7FF1F6EDB963F10B50B49002803D0F2
:100E0000012808D0002010BD0888FFF7A4FA074980
:100E1000FFF70FFA10BD4888FFF79DFA0146024818
:100E20004068FFF743FA10BDEC0100203333B33ABA
:100E3000F0B58400304887B005597F21680040082C
:100E4000C9050290FFF7F1F906462946FFF7F1F9C7
:100E50002949303909680191FFF7EBF905902946D6
:100E60000298FFF7E6F92449203909680091FFF755
:100E7000E0F907462048083001592846FFF7D1F924
:100E80001D49049028390968FFF7D3F93146FFF767
:100E9000D0F91A4909680391FFF7CBF90599FFF7D3
:100EA0006FF9154906461039085108390498096840
:100EB000FFF7BFF90299FFF7BCF90399FFF7B9F9FA
:100EC0003946FFF75DF90C490839085101463046AB
:100ED000FFF756F9084E10363051304608380551A4
:100EE00000990198FFF74CF90146A01901F02CFD7B
:100EF000305907B0F0BD0000440000208C000020F5
:100F0000F8B505460C46480000D1294C01210026C1
:100F1000C9078D4203D94C404D408126F605002C6F
:100F200009DC204648402C46054601218907304609
:100F3000FFF726F9064621462846FFF737FA10D86C
:100F400021462846FFF76DF9074621462846FFF758
:100F500017F904467F213D46C9053046FFF710F9D1
:100F6000064621462846FFF7A1F904461149FFF736
:100F700060F91149FFF704F92146FFF75AF90F49C3
:100F8000FFF7FEF82146FFF754F904460C493046B6
:100F9000FFF74FF92146FFF7F3F80A49884202DDCF
:100FA0000949FFF73EF90949FFF743F9F8BD000089
:100FB000567C0A2A4BC887BD7EAE36BE42DA833FD6
:100FC000DB0F493FDB0F4940DB0FC940E12E654293
:100FD00070B5184CE06B002804D00025012809D01A
:100FE000E56370BD0120A06202F052FBE06B401C83
:100FF000E06370BD172002F038FEC00608D58F21CF
:10100000002002F057FEE563A56201F0CFFF70BD3E
:1010100001F05AF9E16C401A07498842F7D9E120FA
:1010200002F002FE8F21002002F044FEE563A5627B
:1010300070BD0000E80000201027000070B50025FA
:1010400006462C46A00030580146FFF7F2F8294624
:10105000FFF796F8641CE4B20546032CF2D3FFF7C1
:10106000F3FB01467F20C005FFF720F970BD0000AB
:10107000F8B51D4D0C216E68074632464A431B49A0
:10108000184853182A6894001959002F02D0491C97
:10109000195102E0491E16481951002E06D1002AA6
:1010A00001D0012A02D10F49FFF7C3F80021C9433B
:1010B000FFF73AF9AE683159FFF762F8002800DD12
:1010C00030512968002902D1002800DD706068686D
:1010D0000C225043054A890080184058002800DA45
:1010E0004042F8BDCDCCCC3D7000002094020020E1
:1010F000CDCCCCBD30B5002207239C1A6418203C0F
:10110000855CE47FA54201D0002030BD521C072A37
:10111000F3DB012030BD0000FEB5072002F0A5FD85
:101120000007400F0026072801D0022000E03046CB
:1011300001246D4D002869D0E86800281DD001F019
:10114000C3F807460F21694802F079FD00F0B6FCAC
:10115000002853D0686C401C68646868002801D07F
:10116000FFF736FF2E636E6328692F656F65EE62A9
:10117000E865A86A00283FD040E00F215B4802F0F4
:101180005EFD5A4B1868A42801D0A3283ED1A3289D
:1011900002D157486C6068625348197E4030017034
:1011A000197F4170198C8170998CC17051494E4FD3
:1011B0008868C96800900120019160378100595CFE
:1011C0006A4611543A18203A401CD1770628F5DBBC
:1011D0000621684602F006FD3020694608700621A7
:1011E000684602F0FFFC404829694030415C2520F8
:1011F00002F060FDEC6009E001F0D8FEA869401C37
:10120000A861092802DD0A206C61A861A86A00288B
:1012100001D0FFF7DDFE01F057F80746286D391AB7
:10122000686A82007D20C000101881420BD9E868EE
:10123000002808D02F65686B002801D1E86D28616F
:1012400001F0B4FE6C63A96A686B084319D1286B7E
:101250000090052815D2E868002812D0286D7D215D
:10126000381AC90088420CD9696AFEF759FF01464D
:101270000098401C814204D301F098FE286B401C6A
:101280002863686D391A1C48814206D91B48EC62F4
:10129000066046608660C66002E0E86A002803D007
:1012A000286A002802D011E02C620FE0E869144996
:1012B000381A88420AD90C48EE60062171302C6237
:1012C00002F090FC0021052002F0F4FC00F0FCFF8D
:1012D000A96D411A0848814205D9686C6E64A864FA
:1012E00000F0F2FFA865FEBDE80000203C030020EE
:1012F00088130000F03C000840420F000405002065
:10130000C0E1E40000B502F01DFA00BDF0B57F2792
:101310008BB0FF05FE480497807B002802D13F2058
:1013200000060490FB4E0024FB48A5004059FB49F1
:101330004200520870518A4201DC00200DE0012277
:10134000D207904203D83A460023009703E0F44ABC
:101350000023F449009201F0CFFD641C7051032C6E
:10136000E2DB01F09DFFEB4C04982168FEF761FF82
:10137000ED4D2946FEF75DFFEC4E3146FEF759FF75
:10138000019061680498FEF754FF2946FEF751FF6B
:101390003146FEF74EFF0290A1680498FEF749FF20
:1013A000E349FEF746FF3146FEF743FF0390D84876
:1013B000E04EC0780C3C002803D0DF4800680028CD
:1013C00038D0DE48019901600299416003990025F7
:1013D0008160D848AE008159D8488059FEF721FF76
:1013E0006D1CA051032DF4DB02F070F8002001F019
:1013F000FDFD012001F0FAFD022001F0F7FDD048CB
:1014000001250560C248CF4C0078002870D0C24842
:10141000E561C668CC493046FEF70BFFCB49FEF7C5
:10142000AFFEA061CA48864203DDCA4801680029B0
:1014300076D04DE10021B74802F006FBC64D039976
:101440006868FEF7F6FE049001212868C907484045
:101450000399FEF7EEFE0590A86803990546FEF78E
:10146000E8FE0690BD480990BD480890BD48009030
:10147000A748BD49027AC079002A7BD0002815D040
:1014800003C94500490049086D0828460791FEF741
:101490008DFF00D9079D08992846FEF77DFF17D8D4
:1014A00028460899FEF702FF089012E00120C007C5
:1014B000854232D8AD480168AD4801600020FFF791
:1014C000B7FC0499FEF75CFE3168FEF7AAFE48E01F
:1014D000089790480099006845006D082846FEF777
:1014E0005BFF06D828460099FEF7E0FE054601E0BE
:1014F000DBE03D4608990998FEF79BFE00909D4869
:101500002946FEF796FE0099FEF73AFE05469248F8
:1015100081680120C007814203D931680198D4E76E
:10152000D5E0924801689248016031680198FEF761
:1015300078FE2946FEF77DFE009029463846FEF7E4
:1015400070FE05460020FFF773FC0499FEF718FEB5
:101550003168FEF766FE2946FEF76BFE0099FEF73E
:101560000FFE206071680298FEF75BFE6060B16854
:1015700096E0FFE700287CD0002538460999FEF761
:1015800050FE0A90784903C946004C00640876086A
:1015900021463046FEF70AFF00D834462046089917
:1015A000FEF7FAFE05D820460899FEF77FFE079061
:1015B00000E007975748AC000059009946007608AC
:1015C0003046FEF7E9FE05D830460099FEF76EFE7C
:1015D000064600E03E4607990998FEF72AFE079066
:1015E00031460A98FEF725FE0799FEF7C9FD0790D8
:1015F000594881680120C007814206D94D480159E8
:1016000001A80059FEF70DFE23E05848015958483B
:1016100001514848015901A80059FEF702FE0799F7
:10162000FEF707FE064638460799FEF7FAFD0790D3
:101630002846FFF7FDFB04A90959FEF7A1FD3D4926
:101640000959FEF7EEFD0799FEF7F3FD3146FEF767
:1016500097FD30496D1C0C390851012D92DD35483C
:1016600081680698FEF7DDFD2A490C398860BBE6E3
:10167000FFE700253D48AE0081593D48815128468D
:10168000FFF7D6FB04A98959FEF77AFD2949895944
:10169000FEF7C7FD6D1CA051012DEBDD25488168CB
:1016A0000698FEF7BEFDA0609EE600221A48E261A1
:1016B000C0683149884203DA2648A261026007E027
:1016C000FEF7AFFD2D49FEF7B4FDA061214805608E
:1016D0000F48007900281AD000200F49A061284B3C
:1016E0000868984211D2274A90420EDA4868984218
:1016F0000BD2904209DA8868984206D2904204DA06
:10170000C868002801DD904201DB1F4805603DE00C
:1017100034040020C4030020040500200AD7233C21
:10172000000080BF0AD723BC0000574435FA8E3C26
:101730000000FA43580500202C020020000300207E
:10174000E80100206C01002077BE7F3F6F12833AD2
:10175000CDCCCC3DE4010020140200209A99993EA2
:1017600000005C423333733F400500203405002005
:10177000440000203333333FCDCC4C3D9932873F7A
:10178000A4707DBFA4707D3FC0010020B3480068F5
:10179000002803D1B248A169814223DA6068002899
:1017A00008D000F091FD6168401AAE49884201D925
:1017B000002060600026F0B2002101F029FE761CB6
:1017C000032EF8DDA84E00213246A84801F0CFF8DC
:1017D000A64832460021001D01F0C9F8002025600E
:1017E000A06137E10020206000F06EFD6060A0483D
:1017F0000068002802D09F48C068A0619E4800256C
:10180000006801283DD19D489E4E01689C48814258
:1018100005DAFEF706FD3146FEF70BFD05469A4850
:1018200001689A48814205DAFEF7FBFC3146FEF773
:1018300000FD0546BD4201DD3D4601E0002D07DD0E
:1018400093492846FEF7F5FC6169FEF799FC03E031
:1018500083496069FEF7E5FC3F2109066061884223
:1018600001DD616105E00121C907884201D900203D
:10187000606128466169FEF783FCA169FEF7D5FC2B
:10188000A061844D79482E680838806931460890F7
:10189000FEF7C7FC00906C682146FEF7C2FCAD68FD
:1018A0002946FEF76DFC079031460898FEF768FC64
:1018B00006462146FEF7B5FC2946FEF7B2FC059028
:1018C00021460098FEF75CFC2946FEF7AAFC06902C
:1018D00030462146FEF754FC2946FEF751FC0490A1
:1018E0000020401C0328FCDD002000905C48002400
:1018F00004AE0890A50070590099FEF757FD01D27B
:101900007059009070590899FEF746FD01D2705940
:101910000890641C042CEDDB7F21C9050098FEF7BC
:1019200080FC3F252D06A84200DD28464F4C083C90
:10193000A168FEF73BFD04D25749A068FEF720FCE2
:1019400003E05649A068FEF76CFC454FA060A84232
:1019500001DDA56003E05249884200D9A1604348F7
:10196000012108388068C907884200D94D484E498E
:10197000FEF75FFC00280DDD3946FEF701FC074647
:101980000024A50070593946FEF74BFC641C7051C9
:10199000042CF6DB4548006801281ED100252C46A2
:1019A000A700F0592946FEF7F7FC00D2F559641C50
:1019B000042CF5DB3E48854201D9054603E00120B1
:1019C000C007854209D90024A700F0592946FEF72F
:1019D00028FC641CF051042CF6DB00212348354F11
:1019E00008380D460162AC0031590120C007814220
:1019F00001D9002003E07F20C005814200DD305185
:101A00002D483159FEF715FC3946FEF7B9FB305128
:101A100001F0A0FA0146E8B201F0FAFC30590121C8
:101A2000C907884202D90020305104E07F21C9054E
:101A3000884200DD315131590C4C083C206AFEF7D8
:101A40009FFB6D1C2062032DCDDD0121C943206A5F
:101A5000FEF76AFC20620BB0F0BD0000140100200C
:101A60006F12833A40420F00EC51383F740100205E
:101A70003402002090050020E0010020A801002091
:101A8000CDCC2C4000004040AC010020333353400B
:101A900017B7D138F40200200AD7A33B0AD7233C5A
:101AA000CDCCCCBD17B7D1B8CDCCCC3DE401002016
:101AB000CDCC4CBECCCC4C3D3333733FF8B5494D07
:101AC0002868A52872D1002108468200AA58401C27
:101AD00051180E28F9DBC8B2A96B884266D141487B
:101AE000103001F073FA404C20603E48183001F08D
:101AF0006DFA60603B48283001F068FAA060288CDD
:101B0000696A8007800D4018FEF71AFC3749FEF716
:101B100090FBE0602B7B1806C10F35488171A968E6
:101B20008E06F70FCA069E06D20FC2710772F60F15
:101B30005B07C672DB0F83720B07DB0F03706B68EA
:101B4000FA2B10D000232A4D88076B70C00FA870A5
:101B5000C807C00FE870274D29D0274E002F07D0A7
:101B6000002A02D006E00123EDE73146206803E0B9
:101B7000002A0AD02946206801F07AFC2060294614
:101B8000606801F075FC606004E03146206801F097
:101B90006FFC20603146A06801F06AFCA060002064
:101BA00007460126154B124D154C0DE018E029464D
:101BB000206801F05DFC20602946606801F058FC57
:101BC00060601049A068E7E71F54225C295C8A42E4
:101BD00000D01E542154401C0E28F5DB0120F8BD16
:101BE0000020F8BD3C03002004050020F7FF7F3AE9
:101BF00034040020CDCC4C3FCDCC0C3F240500203C
:101C0000140500209A99193F10B50020FFF730FA0B
:101C100010BD08B5C100081A0090411E009101D303
:101C20000846FAE708BD000006460024E0B200219D
:101C300001F0EEFB641C032CF8DD0B4DAF0000241B
:101C40000CE0FF2000F06EFE2846FFF7E2FFFF20C9
:101C500000F056FE2846FFF7DCFF641CB442F0DBC0
:101C60003846FFF7D6FFEAE7400D030010B50349F9
:101C7000FEF786FA00F004F810BD0000DB0FC93F44
:101C800070B50446134E144D03E03146FEF778FA62
:101C90000446AC42F9D8114DAC4204DD3146FEF7A2
:101CA000C0FA0446F8E70120C0070D490D4D8442F3
:101CB000204605D9FEF7BDFA2946FEF761FA04E091
:101CC000FEF7B7FA2946FEF7B0FA2146FEF7B1FA59
:101CD00070BD0000DB0FC940DB0F49C0DB0F49407E
:101CE0007B81CF3E83F9A23FFEB500273D4600240D
:101CF000681CFEF725FB01900E49A8000E58601CD9
:101D0000FEF71EFB0090A10071580198FEF791FAB2
:101D10000099FEF78EFA0849FEF78BFA3946FEF76E
:101D20002FFA641C0746032CE9DB6D1C032DDEDB58
:101D3000FEBD0000D80000208D976E3F10B5FFF764
:101D4000D3FF0149086010BD5C000020F8B50020F9
:101D5000012400F015F93B4DA84272D1FF2000F09C
:101D60000FF9A8426DD12046022500F011F936493D
:101D700048600968FEF710FB11D100260024B70067
:101D800028466D1C00F004F93049A200C959641CB2
:101D90008850032CF4DB761C032EEFDB00E00B25D0
:101DA00028466D1C00F0F4F8294C6E1C2060284673
:101DB00000F0EEF86060304600F0EAF8A0603420F1
:101DC00000F0DEF8002203461146CC001846204100
:101DD000C0B27F2800D90122491C0429F5DB002A62
:101DE00028D11C49012008601B490860322000F0FE
:101DF000C7F81A4C2071322000F0C2F81849000AC6
:101E00000860332000F0BCF802460021CB001046E9
:101E100018416054491C0429F8DB342000F0B0F864
:101E2000104A03460021CC00184620415054491C5A
:101E30000429F8DB362000F0ABF8FEF793FA0A49E4
:101E40000860F8BD0100AA125C000020D800002044
:101E50006405002068010020F000002048010020F7
:101E6000EC00002028010020E0010020F8B500F07F
:101E700093F800F073F8002001242F4901F0C4FE0C
:101E80002E4920460225096800F08AF80026002421
:101E9000B7002B48A100C059415828466D1C00F0DE
:101EA0007FF8641C032CF4DB761C032EEFDB254C3F
:101EB00028466D1C216800F073F86E1C2846616886
:101EC00000F06EF83046A16800F06AF81E4800681D
:101ED00000281FD01E481D4C0068217900020143D4
:101EE000322001F091FE2046FEF730F90102E07841
:101EF000090A00060143332001F086FE1548FEF76B
:101F000025F901021348090AC0780006014334206C
:101F100001F07AFE10480068002802D07F21C90530
:101F200000E00021362000F03BF80349FF2001F0DB
:101F30006BFE00F021F8F8BD0100AA125C00002041
:101F4000D80000206405002068010020480100201E
:101F5000EC00002028010020E001002010B5054819
:101F6000FEF740FB042803D0FEF76CFB012010BDF8
:101F7000002010BD007C000810B5FEF763FB10BD0B
:101F8000024980004018006870470000007C00088B
:101F900000B5FFF7F5FF00BD10B5FEF781FB10BDE2
:101FA00010B501F031FE10BD30B53F4C21788142B3
:101FB00077D006216218203AD27F6254491E012947
:101FC000F8DA207039493848FFF794F87F2500285F
:101FD00002D06570032030BD34493348C91DFFF776
:101FE00089F8002802D06570042030BD2F492E48A2
:101FF0000E31FFF77FF8002802D06570012030BD58
:102000002A4929481531FFF775F8002802D0657074
:10201000022030BD25492448C91FFFF76BF800286E
:1020200002D06570092030BD20491F480E39FFF7E6
:1020300061F8002802D065700A2030BD1B491A489B
:102040001539FFF757F8002802D065700B2030BD16
:10205000164915481C31FFF74DF8002802D065706D
:10206000052030BD114910482331FFF743F80028FF
:1020700002D06570062030BD0C490B482A31FFF7AD
:1020800039F8002802D06570072030BD074906489E
:102090003131FFF72FF8002803D06570082030BDDC
:1020A000FFE70020FBE70000A0010020133D00082F
:1020B000F8B500F087F804006DD00125394F012CE8
:1020C0001ED13868002832D03748056000203860BB
:1020D000FFF7CCFEFFF73AFE002002460C2603462F
:1020E0007343324E00219B198E00491C9A510329DB
:1020F000FADB401C0328F1DB00F0E6F82C4908600D
:1021000002212C4E022C17D00A2C21D02A48042C54
:102110002AD0032C2CD0072C00DB3D60052C2CD0C2
:10212000062C2DD0072C37D0082C38D02BE000F00F
:10213000EBF8FEF7B9FDCBE7204A1068002805D080
:1021400000201060081A30603D601FE00120F8E7B1
:102150001B4A1068002805D000201060081A306063
:102160003D60DAE70120F8E705710F4805600AE0F5
:102170000D490D600021017105E000F0FBFE01E05A
:1021800000F0EAFE30603868002804D0306800288B
:1021900001D105480560F8BD00F04CFBF2E7FFF700
:1021A00033FDEFE728020020C00100209402002048
:1021B000DC010020C401002034040020680100205C
:1021C000E001002070B53748374C0068002864D023
:1021D000364B37481A685100490881420BDA9D682E
:1021E0006D006D08854206DA5D686D006D088542F8
:1021F00001DA00202FE02F4DAA4202D89E68AE429D
:1022000006D95E6876007608864201DA012022E06F
:10221000294EB24202DC9A68B24206DD5A68520088
:102220005208824201DA022015E05A68AA4208D90F
:10223000814206DA9D686D006D08854201DA03204F
:1022400009E0B24208DD814206DA9968490049088E
:10225000814201DA0420206000F036F806CC083C08
:10226000914200D0E060E268801A144A90420FD98F
:10227000002904D1124A904201D90C2005E0114AEC
:10228000904204D97F2903D0FF20A06000E0A16024
:102290006160A068FFF788FE70BD7F20A06060606D
:1022A000002070BD6C01002090010020040500207A
:1022B000CDCC4C3E333333BF3333333FA0860100A4
:1022C00060AE0A0020A1070000B501F071FC00BD5E
:1022D0001CB5232001214004FEF7E0FA01206946E5
:1022E000087100208871C8710320487104200924F6
:1022F000E40600902046FEF7F4F9082100916946B3
:102300002046FEF7EEF91CBDF0B591B0FFF7DCFFFB
:102310000F9005460B900A9000208100574B0CAAA5
:102320005B58401C53500328F7DB8CE00A980A9551
:10233000281A099001D101200990062269464320FC
:1023400000F09EF9009801990002401800B2FDF7D4
:10235000F7FF0790029803990002401800B2FDF7BA
:10236000EFFF0690049805990002401800B2FDF7AF
:10237000E7FF434E0890307800F06EFA204641495E
:10238000FDF7CEFE4048814201D9012100E0002145
:102390003068C207D20F914201D0401C30603848EB
:1023A00001780907090F00260160B4000CAF06A8E8
:1023B00039590059FDF7FAFF04D238593349FDF76E
:1023C000DFFE385106A839590059FDF7E5FF04D260
:1023D00038592E49FDF725FF3851E0192C4900F0F6
:1023E000B3FA38592B4940004008FDF7C9FE0146B1
:1023F00006AF385940004008FDF7D8FF06D2FFF776
:1024000063FF0B901E48012101600BE00998FDF766
:10241000A2FF214900F0E8FA02461848395920186D
:1024200000F0A5FA761C032EBFDB7D24E400FFF745
:102430004BFF401BA04203D20A20FFF7EAFBF6E75E
:10244000FFF742FF05460B982C1A1448844205D228
:102450000F981349281A884200D267E70B98291A67
:102460000E48814207D20020044A01468300401CE6
:10247000D1500328FADB11B0F0BD00007005002038
:102480002402002024F40000127A0000CDCCCC3DC0
:10249000000048440000C8420024F44880841E0024
:1024A000C0E1E40010B58AB002206946087101203D
:1024B0008871C871032040020924E4060090204678
:1024C000FEF70FF9042209212046FEF742F9042203
:1024D0000A212046FEF73DF901214805FEF7EAF9F9
:1024E00001210846FEF7F2F901218805FEF706FAF8
:1024F0000121C805FEF702FA1020FEF7F3F90B4898
:10250000029000200F2104910390AB21084C05900C
:1025100007900691089002A92046FEF74DF9012187
:102520002046FEF72DF90AB010BD00001808700013
:1025300000540040F8B50F461646012100F03AF865
:102540000920800201230090F2B25B06D0211248DC
:10255000FEF76AF9114D0020287018E0002408E009
:10256000641C600B05D00E490868401C0860002000
:10257000F8BD04210848FEF717F90028F0D00648F6
:10258000FEF74CF929788A00B850491C2970287840
:10259000B042E3DB0120F8BD0054004020020020DF
:1025A000E400002008B501226946FFF7C3FF009848
:1025B00008BD0000F3B581B00F4600241A4D1B4E34
:1025C00002E0641C600B22D10121C9033046FEF7F2
:1025D000EBF80128F5D0012040030090FAB2002367
:1025E000D0213046FEF720F902E0641C600B0ED1CA
:1025F00002213046FEF7D8F80028F6D00198C1B283
:102600003046FEF70EF907E0641C600B04D0286822
:10261000401C28600020FEBD01213046FEF7C4F8B2
:102620000028F1D00120FEBDE4000020005400404D
:1026300070B50D4600240221FFF7BCFFE9B20C4D36
:102640002846FEF7EEF807E0641C600B04D0094949
:102650000868401C086070BD40212846FEF7A4F8B9
:102660000028F1D001212846FEF794F870BD000043
:1026700000540040E400002010B5FFF713FF10BD28
:1026800010B5FFF757FF10BD10B5FFF78BFF10BD5A
:1026900010B5FFF7CDFF10BDF0B54C4C4C4D87B0D9
:1026A00021682868FDF7BDFD286061686868FDF74E
:1026B000B8FD6860A168A868FDF7B3FD00240A278B
:1026C000FF43A860A600A8593946FDF72DFE641CFB
:1026D000A851032CF6DB3F480024006804AF0090AB
:1026E0003D48A60080590099FDF7A3FD641CB85130
:1026F000032CF5DB394E049834682146FDF799FD2B
:10270000B168FDF792FD019001990498FDF791FDE4
:102710002146FDF735FD074601990598FDF789FD2E
:102720007168FDF72DFD044621460598FDF781FDF2
:102730000199FDF77AFDB06021460698FDF779FD15
:102740003946FDF772FD3060069A01461046FDF7E6
:1027500070FD2146FDF714FD70601D48FEF76EFC0C
:102760001F49204A4118914222D27F22D2050146B8
:1027700000241046FDF79AFD0090A700E959FDF7E7
:1027800058FD641CE851032C01DA0098F5E7114864
:102790003F210906006800F039F907460024A0002F
:1027A000295880193A4600F0E2F8641C032CF6DB45
:1027B000B1683068FEF7A4FB0B4C2060B16870680C
:1027C000FEF79EFB606007B0F0BD000064050020CE
:1027D0004C050020D80100205805002014020020DC
:1027E000CCCCCCC03233730040050020F8B50025B6
:1027F0000D4F01F01DF80024A6000A21B859C94365
:10280000FDF792FD01460948094A301800F0AFF87B
:10281000641C032CF0DB7D20C000FFF7FAF96D1C6F
:10282000642DE6DBF8BD00004C05002014020020FA
:102830009A99593F10B50120FEF71AFC10BD0EB54C
:1028400000226B461A805A8001911A819A72694659
:10285000FEF790F90EBD000070B50646FFF734FD97
:10286000194C21692061451A3046FDF774FD17495E
:10287000FDF7DFFC06460121204689070C3000F0F9
:1028800063F82846FDF767FD054630466168FDF7A9
:10289000C8FC2946FDF7CDFC0D49FDF7CAFCE168EF
:1028A000FDF76EFC0B49E060884205DDFF2000F07B
:1028B00039F87F20C00503E0FF2000F021F8002058
:1028C0006060002070BD0000000000208988883D05
:1028D0006F12833A48E1FA3E70B50D460446FFF7A1
:1028E000F3FC2146FDF71CFC6C432009814203D90F
:1028F0000F2000F017F870BD0F2000F001F870BD38
:1029000070B50446064DC00703D004212846FDF7E4
:1029100032FFA00703D508212846FDF72CFF70BD24
:102920000000004870B50446064DC00703D00421DE
:102930002846FDF71EFFA00703D508212846FDF70E
:1029400018FF70BD0000004870B504460120C007A4
:102950000D4645400E462068FDF728FD00D2266052
:1029600028462168FDF722FD00D2256070BD70B5B4
:1029700005460C467F2016461146C005FDF751FC62
:102980002146FDF756FC044631462868FDF751FC08
:102990002146FDF7F5FB286070BD0000F3B5104E31
:1029A000104F8C0083B031597869FDF742FC0190DB
:1029B00030460C38055938692946FDF73AFC009035
:1029C000B9690398FDF735FC0099FDF7D9FB01992A
:1029D000FDF727FC314635510C39085105B0F0BDE3
:1029E000300300207000002010B5FDF75FFC7F244D
:1029F000E4052146FDF719FCA04201DD204610BD8B
:102A00000121C9078842FAD9002010BD10B5FDF791
:102A100010FC7F24E4052146FDF707FCA04201DD00
:102A2000204610BD0121C9078842FAD9002010BDF7
:102A3000F8B5164A09018C1805462768A168606830
:102A4000FDF79EFB0090E168FDF79AFB01467F20B1
:102A5000C005FDF72BFC0099FDF7EBFB0646394658
:102A60002846FDF7DEFB3146FDF7E3FB3946FDF76F
:102A700087FB05467F203146C005FDF7D2FB009954
:102A8000FDF7D7FB256060602846F8BDA005002053
:102A9000F8B5164A09018C1805462768A1686068D0
:102AA000FDF76EFB0090E168FDF76AFB01467F20B1
:102AB000C005FDF7FBFB0099FDF7BBFB0646394659
:102AC0002846FDF7AEFB3146FDF7B3FB3946FDF76F
:102AD00057FB05467F203146C005FDF7A2FB009954
:102AE000FDF7A7FB256060602846F8BDD0050020F3
:102AF0000EB57D20C000FFF78CF8FEF703FCFFF752
:102B0000E7FBFF20FFF70EFF00F014FF01F03AF89B
:102B1000E148FFF77EF8FFF7AFFD00F0FFFB002173
:102B2000084600F075FC0021012000F071FC002136
:102B3000032000F06DFC0021022000F069FC00F091
:102B40004BFE00F039FE002836D0FEF7DFF8D349FF
:102B500001208873FFF7F2F8FFF7F8F800F008FD9E
:102B6000CF4E00240020FEF747F9B168FDF761FB66
:102B700005460120FEF740F90146CA4FC8483A46CB
:102B80000830FFF7F4FE3A462946C548FFF7EFFE46
:102B9000C548641C8442E5DBC44D306806240090BF
:102BA0002046FDF7CDFB074601460098FDF77EFB6A
:102BB000A84203DD776104E0042037E0641E002CA6
:102BC000EEDC71690098FDF771FBB949884201DAC2
:102BD00002202BE0FFF798FB00F076FCFFF706FEE3
:102BE000B4480068002801D007201FE0FFF76CFB05
:102BF0007063FFF769FBAA4C0546606B281AFDF766
:102C0000AAFB2063002802DC7F20C0052063AA49BC
:102C1000FDF70FFBA9492063884201DD062005E08E
:102C2000A44865630068142802DD0820FEF7FCFF55
:102C300000F0FEFDFEF76AFBFFF72EFD0020FEF719
:102C4000DBF8974CA168FDF7F4FA06460120FEF781
:102C5000D3F80146934F20463A460830FFF787FEE7
:102C600097483A46016820460C30FFF780FE9549A8
:102C70006069FDF7DEFA0190934A01A82168FFF729
:102C800076FE3A4631462046FFF771FE0121C943E0
:102C90000198FDF749FB06468C492068FDF7C9FA03
:102CA0003146FDF7BEFA0090E4688948844256DD5B
:102CB0007B4F786A0646FDF743FB8549FDF7B9FA75
:102CC0002146FDF7B6FA0099FDF75AFA7349B400A8
:102CD000703108510646F86A002808D000203039C3
:102CE0008200401C8E500C28FADB0020F8626B48F2
:102CF000784910300059FDF79CFA684F0290403730
:102D000039593046FDF78DFA0299FDF739FA3946FF
:102D10003E51303908510146FDF78BFA3E460146D7
:102D20006036A0196C4AFFF722FE5D485C49406A94
:102D3000401C48620C2812DB0020486230680024E6
:102D40000290A700F0590299FDF726FB04D2F05932
:102D500002905348611C8162641C0C2CF1DB504FC3
:102D60003869002800D05A485C49FDF709FA064640
:102D7000B86AFDF7E5FA564C2146FDF75AFAF968AC
:102D8000FDF757FA0099FDF7FBF93146FDF704FB13
:102D900003D353493868884201DA012000E000205B
:102DA0003861B86AFDF7CCFA2146FDF742FAF968B6
:102DB000FDF73FFA0099FDF7E3F9786049480068AC
:102DC000002801D0FFF774F93869002801D00821E4
:102DD00008E045480068002806D0444800680028FC
:102DE00004D00F2142481EE00C211BE02B488079C3
:102DF000002807D00026B869002817D0386A0028B4
:102E000002D004E00126F6E7FFF75EFA3862FFF72A
:102E10005BFA396A411A3648814202D90020B8610A
:102E2000386208211C48FFF757FD2BE0F86900289D
:102E30001FD0FFF749FA0446386A002809D13C62DE
:102E4000002E03D0FF20FFF75BFD02E0FF20FFF71D
:102E500069FD386A211A2648814201D8386A04E09F
:102E6000F869401EF861002038622249201A884221
:102E700008D9002E03D0FF20FFF754FD02E0FF2009
:102E8000FFF73EFDFEF748F97D24E400FFF71CFA4A
:102E9000401BA042FAD3ACE6A08601003404002017
:102EA000A8010020492E7F3F88130000CDCC6C4044
:102EB00033335340E4000020BD3786350AD7A33CA6
:102EC0008C0100206666864029EA7F3F0000A03F13
:102ED000CDCCCC3D42F27C3F67B17F3F00006040EB
:102EE000CDCC2C406C010020F40000201401002007
:102EF00020A10700E0930400FFB581B007460E460D
:102F000010460A9DFDF78DF9044628460499FDF701
:102F100088F9054631463846FDF783F92946FDF71D
:102F200088F92146FDF7C2F90499FDF729F905B0A2
:102F3000F0BD000010B506490868002807D0002041
:102F40000860091D08710920C006FDF7CAFB10BD05
:102F5000F40100207047000005490868022804D0E9
:102F600001DA02200860401C70470020FAE70000E8
:102F7000700000200C494868002804D0012807D0C0
:102F800002280AD10BE0084844308860012003E0A1
:102F900005485030886002204860401C7047024855
:102FA000383088600020F7E77000002010B506492F
:102FB000087C401C8007800F08614031095C252097
:102FC00000F078FE10BD0000E800002010B5416858
:102FD00000788007800DFF38FF3802380818FDF7A9
:102FE000AFF90821C943FDF79FF910BDF0B50646BA
:102FF0009E489F49C2789F489F4F0068B4008FB099
:10300000002A03D0994A127A002A11D0002803D04E
:103010003859FDF70EF93851022E1ADA964918314F
:103020000859C207401CD20F0851002A07D010E0EF
:103030000028EDD1914800680028E9D0ECE78E48DF
:1030400031464830005900F0DFFC01468A480C3018
:1030500001518B480025015987483C300059FDF744
:103060009BF904D187480059002800DD01258448D8
:1030700001210059C90748407F493C310959FDF7F2
:103080008BF906D17F4801590120C007814200D940
:103090000125022E0BDA78480C3001593C300059DA
:1030A000FDF7BFF8400078494008884227DC002D32
:1030B00025D171480221543005592846FDF734F9CD
:1030C0006D4960310959FDF75BF86E490959009166
:1030D000FDF756F86D49FDF7ACF86D490959FDF754
:1030E000A8F86C490968FDF7A4F83959FDF748F8C4
:1030F00038516148603005510C38009901516048E1
:103100000C3001595C482018FFF71EFC604818304D
:1031100007595C4839460059FDF78BF85C490C3972
:1031200009590091FDF785F8534D7F2101903C35F9
:10313000C9053846FDF775F80099FDF77AF8564944
:1031400009590391FDF775F80199FDF719F84A49F6
:103150000959FDF715F828514D480C3000590290D7
:10316000002801DC285972E040480AA9827807A8A3
:10317000002A06D0464A243A12590251444A183AC3
:1031800005E03D4A603A125902513B4A543A1259FD
:103190000A5100597F22D2050090904208590190AF
:1031A000014604AF104608DAFDF73BF80D903B48A6
:1031B00001990059400040080BE0FDF732F80D90EE
:1031C00000990198FDF772F8014634480059400013
:1031D0004008FDF72EF80D99FCF7D2FF385126482C
:1031E000243001590398FDF71CF80299FDF721F8E6
:1031F00027494439C9690D91FDF71BF80E901E4807
:10320000303001591830025901921046FDF709F883
:103210000299FDF70EF80099FDF70BF83959FDF703
:1032200008F80D99FDF705F80E99FCF7FAFF124919
:10323000019A30310A51104A039924321151314612
:10324000FFF7ACFB01462859FCF79AFF28511049BB
:103250004439C968FCF7EDFF285109480159601944
:10326000FFF772FB28590FB0F0BD000034040020B6
:1032700048E17A3F6C010020B8020020E401002000
:10328000D83C0008B8030020CDCCCC3D7EAA2A3E15
:10329000B4000020D801002058050020C4030020FD
:1032A000F8B5144801681448FDF700F8134CE061C4
:1032B0001348016813480068FCF7F8FF7F25124E99
:1032C000ED053346114A12490095FFF715FEE060FF
:1032D000B04201DDE66002E0A84200DAE5600D4898
:1032E000C078002804D00C49E068FCF7A2FFE06039
:1032F000F8BD0000D801002017B7513B7000002036
:10330000BC010020A8010020713DAA3F66667640FE
:1033100000002040340400206666663FFEB50225AA
:1033200069460D710320487100248C71CC71012114
:103330002846FDF7BFFA314F31483946FFF77FFA8B
:1033400001210E023046FDF7B5FA39462D4F3846B9
:10335000FFF775FA2C4860210180012141808481AA
:103360000682846010200924E40600906946204605
:10337000FDF7B7F9042211462046FDF7EAF9224984
:103380003846FDF73FFB4020009069462046FDF798
:10339000A8F9012206212046FDF7DBF91A49184851
:1033A000FDF730FB8020009069462046FDF799F933
:1033B000012207212046FDF7CCF913491048FDF7FB
:1033C0005FFB124C694620460095FDF78AF9012201
:1033D00011462046FDF7BDF90B490948FDF798FB5A
:1033E00001210748FDF7F8FA01210548FDF7FEFA2B
:1033F00001213846FDF7F0FAFEBD0000CF070000BE
:1034000000040040002000407C050020000400482B
:1034100010B50A46044612491046FCF70AFFFCF7AD
:10342000A1FF002801DA002003E00E49884200DDF8
:103430000846002C09D0012C0CD00B49022C0CD0D2
:10344000032C01D180B2886310BD074980B240319E
:10345000086010BD80B2054900E080B2486310BD2D
:1034600000E0F944CF0700000004004000200040C5
:10347000F8B506467F20C0050C46814201DD0446B2
:1034800003E010498C4200D90C4621460746FCF760
:10349000C8FE3146FCF7CDFE054631460846FCF72E
:1034A000C8FE3146FCF7C5FE2146FCF7C2FE2946A0
:1034B000FCF766FE009039466846FFF745FA00982B
:1034C000F8BD0000000080BF70470000FEB5254D2C
:1034D000254C2F68A66839463046FCF7AAFE2349DA
:1034E00009680091FCF7A5FE6168FCF79EFE39466D
:1034F0000190FCF79EFE0099FCF79BFE3146FCF71D
:103500003FFE074668680290266801463046FCF791
:1035100090FE0099FCF78DFE3946FCF786FEA06010
:103520000299FCF786FE0099FCF783FE3146FCF712
:1035300027FEAD68064629460198FCF77AFE0099F9
:10354000FCF777FE3146FCF770FE29462060FCF759
:1035500070FE0099FCF76DFE0199FCF711FE6060AA
:10356000FEBD000058050020B8020020D801002050
:103570007CB54348012585730021C1730221414870
:1035800000F030FB3F480721773000F02BFB3D482F
:103590000621653000F026FB3A480421383000F05F
:1035A00021FB6420FEF735FB364806216B3000F026
:1035B00019FB0021012000F07DFB0121022000F019
:1035C00079FB3921062000F075FB0F21112000F056
:1035D00071FB0021042000F06DFB0321084600F080
:1035E00069FBE22000F020FB0021052000F062FBD7
:1035F00038211D2000F05EFB00F096F9FD2000F060
:10360000D7F9002000F0D4F900F088F98F210020CC
:1036100000F050FB0F2000F028FBC62802D003204A
:10362000FEF702FB174CA068002827D016486A4610
:1036300003C8019100900120214660310B18203B06
:10364000DB7F1354401C0628F8DB0621104600F0EF
:10365000C9FA3020694608700621684600F0C2FAAF
:10366000084821694030415C252000F023FBE560DB
:103670006068002801D0054860627CBD25627CBD81
:1036800034040020E8000020F03C0008881300000B
:1036900070B590B000206C4681006050401C0F282F
:1036A000FADB852000902248224D066822480196C8
:1036B00029460068FCF7BDFDFCF754FE0104C0B2CA
:1036C000090E049003911D4829460068FCF7B1FDDE
:1036D000FCF748FE0104090EC0B2194D0591069091
:1036E000A86CC10F08184010FF2800DDFF200790CC
:1036F000002E03D0039808210843039000210846B8
:103700008200A258401C51180E28F9DBE1200E91CE
:1037100000F08AFA8221002000F0CCFA0F216846DE
:1037200000F0B4FAFEF7D0FDE86410B070BD000000
:10373000B80100200000C842A8010020AC01002010
:10374000E80000201B480168012211430160016864
:103750008907FCD5416889088900416041680907EB
:10376000890FFBD1016801221206914301600168B3
:103770008901FCD441683F231B049943416041689F
:103780007B23DB039943416041680723DB04194332
:10379000416001681143016001688901FCD54168FD
:1037A00002221143416041680907890F0229FAD1B9
:1037B000704700000010024010B57520FEF764FF4E
:1037C000682807D0982805D07D2803D0722801D01A
:1037D000002010BD012010BD10B580216B20FEF728
:1037E00057FF1248FEF715FA01216B20FEF750FF34
:1037F0007520FEF749FF682801D0012400E000246D
:103800006420FEF706FA18211C20FEF741FF002C69
:1038100003D005211D20FEF73BFF18211B20FEF7DA
:1038200037FF00211A20FEF733FF10BD409C000037
:10383000F0B593B00E2269463B20FEF721FF0298B7
:1038400003990002401800B2FCF77AFD304C20606A
:10385000009801990002401800B24042FCF770FD48
:103860006060049805990002401800B2FCF768FDFA
:10387000A060089809990002401800B2FCF760FDAA
:1038800011900A980B990002401800B2FCF758FDFD
:1038900010900C980D990002401800B2FCF750FDF2
:1038A0001290243421681098FCF7BBFC10906168DA
:1038B0001198FCF7B6FC1190A1681298FCF7B1FCC6
:1038C00012900120109AC0071199424010911146A0
:1038D0004140119112990E4F4140002410AE0C3717
:1038E0001291A50070590B49FCF7A3FC0A49FCF79B
:1038F000A0FC70512146FFF79BF878512146FFF755
:10390000C7F8641C7851032CEBDB13B0F0BD00004A
:103910004C05002000007A3D35FA8E3C014901201B
:1039200088617047001400480149012008817047F0
:1039300020140048FEB501246846047100258571F5
:10394000C4710326467102200B4F00906946384629
:10395000FCF7C7FE694638460094FCF7C2FE0748EC
:10396000046005718571C471467101460920C00665
:10397000FCF7B7FEBC61FEBD00140048F801002052
:1039800070B4002007210223074C0925074EED06DD
:10399000A3614200288A3381C007C00F1043491E2B
:1039A000F6D570BC70470000001400482014004891
:1039B000F8B504460F4809260168F60601250029D6
:1039C00006D105600C48057101463046FCF789FEBA
:1039D00007210A4B0A4F022022460A41D20701D092
:1039E000B56100E01D81B861064A1081491EF3D51A
:1039F000F8BD0000F4010020F8010020200000487C
:103A0000001400482014004870B50C4AC9008C18F6
:103A1000054660680A492060FCF70BFC0646094928
:103A20002846FCF706FC3146FCF7AAFB60602268DA
:103A300001461046FCF7A4FB70BD00000006002004
:103A400007715D3FE23B8A3DF8B5474D044601688A
:103A50002868FCF7A1FC04D161686868FCF79CFC4D
:103A600055D0206828606068404E686031466068C4
:103A7000FCF7DFFB3E4F3946FCF7DBFB05463146E2
:103A80002068FCF7D6FB3946FCF7D3FB0646FEF769
:103A9000F7F8354C083420602846FEF7F1F86060EE
:103AA0002846FEF7E3F805463046FEF7DFF82946DC
:103AB000FCF7BFFB0646A06060680146FCF7B9FB57
:103AC000054620680146FCF7B4FB2946FCF758FB85
:103AD0002849054688420FDD31460846FCF7A9FB18
:103AE0007F21C905FCF7A1FB01462846FCF7DEFB58
:103AF000FCF7AAFE054600E01F4D20682946FCF7AA
:103B000098FB206029466068FCF793FB6060164CC8
:103B10001A4E0834A068009070680099FCF789FB81
:103B2000B768054661683846FCF783FB2946FCF711
:103B300078FB134D686030680099FCF77AFB064605
:103B400038462168FCF775FB3146FCF76AFB7F2499
:103B5000E405286021462846FEF7F6FE2146281D8A
:103B6000FEF7F2FEF8BD00000002002000008242D5
:103B700035FA8E3C6F12833AF4FD343F1402002074
:103B80003405002010B50848064941610749CA6953
:103B900003231202120A44042243CA6100218161F4
:103BA000036110BDFF117A0000E000E004ED00E0C9
:103BB0000A48436980690A494A68904201D2121A48
:103BC00001E01B1A9A18486008681218D008C30050
:103BD000D21A0A608A6810188860704700E000E016
:103BE0006400002070B50D460646FFF79DFE0024D8
:103BF00004E0305DFFF7DCFE641CE4B2AC42F8D3B5
:103C0000FFF78CFE70BD0000064A10B580008018DA
:103C1000FCF720FD042804D0FCF714FD0520FEF776
:103C200003F810BD007C000810B50446FFF77CFEC9
:103C30002046FFF7BDFEFFF771FE002010BD70B5F6
:103C40000D4606460024FFF76FFE6120FFF7B0FE29
:103C5000FFF770F904E0FFF793FEA1007050641CB9
:103C6000AC42F8DBFFF75AFE70BD10B5C406E40E97
:103C7000FFF75AFE2046FFF79BFEFFF75BF9FFF7C1
:103C80007FFE0446FFF74AFE204610BD70B50D4684
:103C900006460024FFF748FEA020FFF789FE04E057
:103CA000A0003058FFF784FE641CAC42F8DBFFF73D
:103CB00035FE70BD70B58406A40E20200D46044369
:103CC000FFF732FE2046FFF773FE2846FFF770FE2F
:103CD000FFF724FE70BD00009A99D93F9A99D93F09
:103CE0000000003F9A99D93F9A99D93F0000003FC0
:103CF0002A000000000000002A00000000000C0361
:103D000000040003000C0100010001000C0200028D
:103D10000002000C0100010003000C02000200037D
:103D2000000C0300030003000C0400040004000C5A
:103D30000400030004000C0400030003000C040052
:103D4000030002000C04000300010000703D0008A5
:103D5000000000205802000068040008203E00080F
:103D600058020020C0070000500C0008F5CEFFFFED
:103D700001166320416340405AA008013003182017
:103D8000C11AA81D21600F803F9ED8893F217394DE
:103D90003E52215A3E4BC03F042F803F9A99993E94
:103DA00004412DF6285C3E0458086666863F33338E
:103DB000B3243EC03FA4703D043808CDCC0C3F7BFB
:103DC000146E042D6666663F601AB4043AC068211A
:103DD000032239010312B80B05293EF6375D50085E
:103DE0003F0A6D679C462A490660083A4521EF2C38
:103DF0005A502983A987052CCDCCCC3D19FC2240F3
:103E00001A80F86948490C01100921EB91A0097B3F
:103E100014524185EB4141A954091460012400006A
:04000005080000C926
:00000001FF
